:100000000C9463000C948B000C948B000C948B006C
:100010000C948B000C948B000C948B000C94B20508
:100020000C948B000C948B000C948B000C944E055C
:100030000C948B000C948B000C948B000C948B0014
:100040000C9404050C948B000C94D2040C94AC0416
:100050000C948B000C948B000C948B000C948B00F4
:100060000C948B000C948B000000000024002700EF
:100070002A0000000008000201000003040700003D
:1000800000000000000000000000230026002900FE
:1000900000000000250028002B00040404040404D0
:1000A0000404020202020202030303030303010227
:1000B00004081020408001020408102001020408F6
:1000C0001020CB06BD0611241FBECFEFD8E0DEBF47
:1000D000CDBF11E0A0E0B1E0EEE1FEE102C005908D
:1000E0000D92A434B107D9F723E0A4E4B1E001C034
:1000F0001D92A83EB207E1F710E0C2E6D0E004C0CE
:100100002197FE010E94960DC136D107C9F70E94C2
:10011000D9070C94020F0C94000090E0F0E0E0E0AE
:100120002091B8023091B902E217F307F8F4E21710
:100130001306C8F4292F30E0A091BA02B091BB0297
:10014000A20FB31F6C93A091BA02B091BB02A20F91
:10015000B31F11968C93A091BA02B091BB02A20F6B
:10016000B31F12964C9331969D5FDACF81E00895CC
:10017000AF92BF92CF92DF92EF92FF920F931F93B5
:10018000CF93DF936C017B018B01040F151FEB01F3
:100190005E01AE18BF08C017D10759F06991D601AA
:1001A000ED91FC910190F081E02DC6010995892B1C
:1001B00079F7C501DF91CF911F910F91FF90EF90DB
:1001C000DF90CF90BF90AF900895FC01538D448D88
:1001D000252F30E0842F90E0821B930B541710F0F2
:1001E000CF96089501970895FC01918D828D9817FF
:1001F00061F0A28DAE0FBF2FB11D5D968C91928DD7
:100200009F5F9F73928F90E008958FEF9FEF089507
:10021000FC01918D828D981731F0828DE80FF11DD0
:10022000858D90E008958FEF9FEF0895FC01918DEB
:10023000228D892F90E0805C9F4F821B91098F73E4
:100240009927089583EF91E00E94160121E0892B00
:1002500009F420E0822F089580E090E0892B29F0B6
:100260000E94220181110C9400000895FC01A48DCC
:10027000A80FB92FB11DA35ABF4F2C91848D90E0C8
:1002800001968F739927848FA689B7892C93A089AB
:10029000B1898C91837080648C93938D848D981335
:1002A00006C00288F389E02D80818F7D80830895C8
:1002B000EF92FF920F931F93CF93DF93EC0181E0B6
:1002C000888F9B8D8C8D98131AC0E889F98980815D
:1002D00085FF15C09FB7F894EE89FF896083E88990
:1002E000F98980818370806480839FBF81E090E082
:1002F000DF91CF911F910F91FF90EF900895F62E0F
:100300000B8D10E00F5F1F4F0F731127E02E8C8DA8
:100310008E110CC00FB607FCFACFE889F9898081ED
:1003200085FFF5CFCE010E943601F1CFEB8DEC0FAA
:10033000FD2FF11DE35AFF4FF0829FB7F8940B8F0A
:10034000EA89FB8980818062CFCFCF93DF93EC0174
:10035000888D8823B9F0AA89BB89E889F9898C91AD
:1003600085FD03C0808186FD0DC00FB607FCF7CF69
:100370008C9185FFF2CF808185FFEDCFCE010E9469
:100380003601E9CFDF91CF910895833081F028F4D1
:10039000813099F08230A9F008958730A9F0883033
:1003A000C9F08430B1F4809180008F7D03C08091CA
:1003B00080008F7780938000089584B58F7784BD07
:1003C000089584B58F7DFBCF8091B0008F778093A7
:1003D000B00008958091B0008F7DF9CFCF93DF9367
:1003E000282F30E0F901EE58FF4F8491F901E255D2
:1003F000FF4FD491F901E656FF4FC491CC23A1F0F1
:1004000081110E94C501EC2FF0E0EE0FFF1FEA57AB
:10041000FF4FA591B491EC91ED2381E090E009F4B8
:1004200080E0DF91CF91089580E090E0FACF1F93B4
:10043000CF93DF93282F30E0F901EE58FF4F8491DE
:10044000F901E255FF4FD491F901E656FF4FC491EF
:10045000CC23A9F0162F81110E94C501EC2FF0E0EA
:10046000EE0FFF1FE057FF4FA591B4918FB7F8949F
:10047000EC91111108C0D095DE23DC938FBFDF9182
:10048000CF911F910895DE2BF8CFCF93DF9390E0AB
:10049000FC01E255FF4F249186569F4FFC01849149
:1004A0008823D1F090E0880F991FFC01E859FF4F95
:1004B000A591B491FC01E057FF4FC591D491611112
:1004C0000EC09FB7F8948C91E22FE0958E238C9309
:1004D0002881E223E8839FBFDF91CF9108958FB7F2
:1004E000F894EC91E22BEC938FBFF6CFCF93DF9390
:1004F00060E0809190020E944502809190020E94EB
:10050000EE01EC0160E0809191020E944502809131
:1005100091020E94EE01AC0121E030E0CD2B11F4FC
:1005200030E020E0220F331F81E0452B09F480E00A
:10053000822BDF91CF9108951F93CF93DF93182FD4
:10054000EB0161E00E944502209739F460E0812FC1
:10055000DF91CF911F910C941702CF3FD10511F479
:1005600061E0F5CFE12FF0E0EE58FF4FE491E3308A
:1005700031F140F4E130B1F0E230E1F0C038D105C2
:100580007CF7E4CFE73029F1E83059F1E430B1F7F6
:1005900080918000806280938000D0938B00C09314
:1005A0008A0004C084B5806884BDC7BDDF91CF9147
:1005B0001F91089584B5806284BDC8BDF7CF809136
:1005C0008000806880938000D0938900C093880069
:1005D000EDCF8091B00080688093B000C093B300ED
:1005E000E5CF8091B00080628093B000C093B400EA
:1005F000DDCF1F93CF93DF93EC01162F61E089814C
:100600000E944502612F8981DF91CF911F910C9447
:1006100017020F931F93CF93DF93FC01268137813D
:100620002617370711F1EB018C017783668377FD7D
:1006300010C061E00E94F9028FE090E00197F1F7AD
:10064000BE01F8018081DF91CF911F910F910C9431
:100650009C0260E00E94F9028FE090E00197F1F7C0
:10066000662777276C1B7D0BECCFDF91CF911F9115
:100670000F9108950F931F93CF93DF938091B8024A
:100680009091B902EC01CC0FDD1FC80FD91F00916A
:10069000BA021091BB02AE01B8018091BC029091E8
:1006A000BD020E94C10E892B09F43BC0A091BE027D
:1006B000B091BF028091C2023FB7F8942C91982F5D
:1006C00090959223822BF801CE0FDF1FEC17FD07C8
:1006D00081F0219148E08C9300C027FF9C93220F6A
:1006E00000C000C000C008F49C9300C04A9599F770
:1006F000EDCF3FBF8091B8029091B902AC01440F99
:10070000551F480F591F6091BA027091BB0280912A
:10071000BC029091BD020E94CE0E8BEC97E0019737
:10072000F1F7DF91CF911F910F9108958F929F92D2
:10073000AF92BF92CF92DF92EF92FF920F931F93EF
:100740002FB7F8948091EF019091F001A091F10101
:10075000B091F2012FBF40919C0250919D02609197
:100760009E0270919F02841B950BA60BB70B4897B6
:10077000A105B10518F081E080939B0280919B0256
:10078000882309F48BC02FB7F8948091EF019091E2
:10079000F001A091F101B091F2012FBF80939C0272
:1007A00090939D02A0939E02B0939F0210929B0291
:1007B00060E086E992E00E94F90283E090E0019710
:1007C000F1F761E086E992E00E94F90283E290E0AD
:1007D0000197F1F760E086E992E00E94F90260E09B
:1007E000809197020E9445028091970290E0FC015F
:1007F000E255FF4F6491FC01E656FF4FE491F0E0B3
:10080000EE0FFF1FEA57FF4F8591949100E412E429
:100810002FE030E0462F0E947806611571058105B2
:10082000910529F06F5F7F4F8F4F9F4F9F706B0136
:100830007C010E94380B6093A0027093A102809308
:10084000A2029093A302C701B6010E94380B20E0D8
:1008500030E048E652E40E94E40C4B015C0120E0E9
:1008600030E048EC53E40E948C0D87FF04C0CD2893
:10087000CE28CF2831F4812C912C88ECA82E83E44B
:10088000B82EC501B4011F910F91FF90EF90DF903A
:10089000CF90BF90AF909F908F9008956091A002ED
:1008A0007091A1028091A2029091A3020E94560D24
:1008B0006B017C01C8CFFC0101900020E9F7319762
:1008C000AF01481B590BBC0183EF91E00C94B800B9
:1008D0008F929F92AF92BF920F931F93CF93DF930C
:1008E000CDB7DEB7A1970FB6F894DEBF0FBECDBF70
:1008F00019A2423008F44AE08E010F5D1F4F842E8A
:10090000912CB12CA12CA50194010E94550CE62F2D
:10091000B901CA01EA30F4F4E05DD801EE938D012B
:10092000232B242B252B79F790E080E0109719F0EA
:10093000CD010E945B04A1960FB6F894DEBF0FBEF6
:10094000CDBFDF91CF911F910F91BF90AF909F903E
:100950008F900895E95CE1CF1F920F920FB60F922E
:1009600011242F933F934F935F936F937F938F93B4
:100970009F93AF93BF93EF93FF9383EF91E00E9418
:100980003601FF91EF91BF91AF919F918F917F9130
:100990006F915F914F913F912F910F900FBE0F90EC
:1009A0001F9018951F920F920FB60F9211242F933C
:1009B0008F939F93EF93FF93E0910302F0910402D2
:1009C0008081E0910902F0910A0282FD1BC09081B2
:1009D00080910C028F5F8F7320910D02821741F07E
:1009E000E0910C02F0E0ED50FE4F958F80930C02E9
:1009F000FF91EF919F918F912F910F900FBE0F90CC
:100A00001F9018958081F4CF1F920F920FB60F920E
:100A100011242F933F938F939F93AF93BF93809114
:100A2000EF019091F001A091F101B091F2013091AC
:100A3000EA0123E0230F2D3758F50196A11DB11DC2
:100A40002093EA018093EF019093F001A093F101CC
:100A5000B093F2018091E6019091E701A091E80145
:100A6000B091E9010196A11DB11D8093E60190931B
:100A7000E701A093E801B093E901BF91AF919F9185
:100A80008F913F912F910F900FBE0F901F9018954F
:100A900026E8230F0296A11DB11DD2CF1F920F92FF
:100AA0000FB60F9211242F933F938F939F93EF9341
:100AB000FF938091E50187FF1FC01092850010927F
:100AC00084008091E5018F5F8093E5018091E501CD
:100AD00087FF04C08091E5018C30ACF080918400E8
:100AE00090918500049680349C4990F18091840017
:100AF0009091850004962EC08091E50187FFE1CF9B
:100B00008091E501DECF2091840030918500E09155
:100B1000E5018E2FEE0F990BFC01EE0FFF1FE80F82
:100B2000F91FEF53FE4F81819281820F931F9093A3
:100B30008900809388008091E501FF91EF919F915A
:100B40008F913F912F910F900FBE0F901F9018958E
:100B500080E49CE990938900809388008FEF8093D4
:100B6000E501EBCF1F920F920FB60F9211240F9356
:100B70001F932F933F934F935F936F937F938F9325
:100B80009F93AF93BF93EF93FF9382E00E94EE0198
:100B900020915A0130915B012F5F3F4F30935B01F1
:100BA00020935A019091C001943618F095E09093EB
:100BB000550190915501933009F44AC0A8F4923040
:100BC000E9F1FF91EF91BF91AF919F918F917F914B
:100BD0006F915F914F913F912F911F910F910F90C6
:100BE0000FBE0F901F901895943009F44AC09530AD
:100BF00041F79FB7F8944091EF015091F001609157
:100C0000F1017091F2019FBF0091560110915701BF
:100C10002091580130915901401B510B620B730B0D
:100C2000493C51056105710508F45BC01092C00193
:100C300010925B0110925A0182E020C08111C1CF55
:100C40001092C00110925B0110925A0183E016C00D
:100C5000813009F0B6CF80915A0190915B01E0910B
:100C6000C00191E09E0F9093C001F0E0EC5AFE4F5E
:100C7000808710925B0110925A0184E080935501A5
:100C8000A0CF81110FC080915A0190915B01E0913A
:100C9000C00191E09E0F9093C001F0E0EC5AFE4F2E
:100CA0008087D0CF80915A0190915B018536910564
:100CB00008F487CF85E0809355012FB7F894809191
:100CC000EF019091F001A091F101B091F2012FBFDD
:100CD0008093560190935701A0935801B093590106
:100CE00070CF81116ECF10925B0110925A0169CFC3
:100CF000CF92DF92EF92FF920F931F93E82FF92F7D
:100D000005C0015011092109310961F19081962333
:100D10009417B9F305C0015011092109310911F1E6
:100D2000908196239413F7CFC12CD12CE12CF12C78
:100D30000AC08FEFC81AD80AE80AF80A0C151D0570
:100D40002E053F0579F080818623841791F36C2D61
:100D50007D2D8E2D9F2D1F910F91FF90EF90DF9095
:100D6000CF90089560E070E080E090E01F910F91D7
:100D7000FF90EF90DF90CF900895CF93DF93C4EB77
:100D8000D2E08E819F810E94380E88859985DF91FF
:100D9000CF910C94380E1092F6011092F50188EE66
:100DA00093E0A0E0B0E08093F7019093F801A09366
:100DB000F901B093FA018AE091E09093F4018093F5
:100DC000F30185EC90E0909300028093FF0184ECA6
:100DD00090E0909302028093010280EC90E0909367
:100DE00004028093030281EC90E0909306028093CA
:100DF000050282EC90E0909308028093070286EC53
:100E000090E090930A028093090210920C021092D3
:100E10000D0210920E0210920F0281E090E090936A
:100E2000C4028093C3021092C5031092C6031092AD
:100E3000C7031092C8031092C9031092CA031092FC
:100E4000CB031092CC031092CD031092CE031092DC
:100E5000CF031092D0031092D1031092D2031092BC
:100E6000D4031092D3031092D5031092D60310929C
:100E7000D7031092D8031092D9031092DA0310927C
:100E8000DB031092DC031092DD0386E08093AC025A
:100E900087E08093AD0299E09093AE0285E0809365
:100EA000A40284E08093A5028AE08093A60220E158
:100EB0002093960221E12093970223E02093980249
:100EC000909390028093910282E08093920210921C
:100ED000B4021092B5021092B602EEEAF0E0E4918C
:100EE000E093C202EAE9F0E0E491F0E0EE0FFF1FC8
:100EF000E057FF4F859194919093BF028093BE027B
:100F000061E080E00E9445028EE190E09093B9029A
:100F10008093B8028AE590E00E949C0D9093BB02FA
:100F20008093BA02892B21F488E191E00E94D70EC8
:100F300030E020E04091B8025091B902CA01880F18
:100F4000991F840F951F2817390750F4E091BA02B2
:100F5000F091BB02E20FF31F10822F5F3F4FEACFE9
:100F60000E949C0D9093BD028093BC02892B21F4BA
:100F700088E191E00E94D70E90E080E04091B802B5
:100F80005091B9029A01220F331F240F351F821787
:100F9000930748F4E091BC02F091BD02E80FF91FFD
:100FA00010820196EBCF1092B60282E08093B702D6
:100FB0000895789484B5826084BD84B5816084BDD1
:100FC00085B5826085BD85B5816085BD80916E00E7
:100FD000816080936E001092810080918100826018
:100FE0008093810080918100816080938100809155
:100FF00080008160809380008091B1008460809344
:10100000B1008091B00081608093B00080917A003F
:10101000846080937A0080917A00826080937A0065
:1010200080917A00816080937A0080917A00806854
:1010300080937A001092C10040E060E080E00E945E
:101040008D0080E030E020E062E091E04091B80265
:101050005091B90224173507D8F4482F50E0E09199
:10106000BC02F091BD02E40FF51F6083E091BC0269
:10107000F091BD02E40FF51F1182E091BC02F091E6
:10108000BD02E40FF51F92832F5F3F4F8D5FDECFD0
:10109000EBEBF0E0E491E093C202E7EAF0E0E491E8
:1010A000F0E0EE0FFF1FE057FF4F85919491909372
:1010B000BF028093BE0261E08DE00E944502109263
:1010C000B602C2E0C093B7024FEF6FEF8FEF0E94FE
:1010D0008D000E943A03E0910302F0910402C08364
:1010E000E091FF01F09100021082E0910102F09185
:1010F00002028FEC808310920B02E0910702F091C4
:10110000080286E08083E0910502F091060280816A
:1011100080618083E0910502F09106028081886001
:101120008083E0910502F0910602808180688083CF
:10113000E0910502F091060280818F7D8083C1E0FD
:10114000D0E085E0282E312C94E0892E912C03E00C
:1011500010E022E0A22EB12CC090ED01D090EE0163
:101160000D2C000CEE08FF084AE0C701B601F7FE9F
:101170000DC06DE283EF91E00E945801662777274A
:10118000CB016C197D098E099F094AE00E94680411
:1011900084E391E00E945B040E9496036B017C0152
:1011A000AC019B010E94910D882309F431C087E3B3
:1011B00091E00E945B0484E391E00E945B040E9442
:1011C0007602F82E90E09093EC018093EB0140E0E2
:1011D00060E080E00E948D000E943A03E091ED0102
:1011E000F091EE01EE30F10508F0AFC0E650F74F98
:1011F0000C94960D240B9A09FA09230A400A680AEE
:101200007E0A920AB10ABF0AD30AF20A000B140B33
:1012100026013701E89477F82FEF3FEF4FE75FE7BC
:10122000C301B2010E94910D81110DC02FEF3FEF5C
:101230004FE75FE7C301B2010E94310B18161CF49F
:101240008BE391E0B6CF2FEF3FEF4FE75FE4C701AD
:10125000B6010E948C0D18161CF48FE391E0A9CF03
:101260002FEF3FEF4FE75FECC701B6010E94310B54
:1012700087FDF3CF20E030E0A901C701B6010E944D
:10128000310B87FF09C06DE283EF91E00E945801A6
:10129000F7FAF094F7F8F0942AE037ED43EA5BE3CD
:1012A000C701B6010E94780C2B013C010E945D0D24
:1012B0006B017C010E94360B9B01AC01C301B201A2
:1012C0000E94770C2B013C014AE0C701B6010E9445
:1012D00068046EE283EF91E00E94580120E030E064
:1012E00040E251E4C301B2010E94970B2B013C0183
:1012F0000E945D0D6B01F12CE12C4AE0C701B601A3
:101300000E946804C701B6010E94360B9B01AC0124
:10131000C301B2010E94770C20E030E040E251E4CA
:101320000E94970B0E945D0D90E080E04AE00E94D1
:10133000680441CF81E0F81611F1F81698F092E0B8
:10134000F91689F183E0F816E9F180E090E0892B45
:1013500009F402CF0E942201882309F4F2CE0E94F0
:101360000000EFCE6AE67FEF8CEA92E00E9409036C
:1013700066E970E084EA92E00E940903E6CF70E03B
:1013800060E08CEA92E00E94090366E970E084EA7A
:1013900092E00E9409034FEF60E080E00E948D0020
:1013A0000E943A03D2CF6AE67FEF8CEA92E00E9475
:1013B000090370E060E084EA92E00E94090340E0E3
:1013C0006FEFEBCF70E060E08CEA92E00E940903DF
:1013D00070E060E084EA92E00E94090340E060E08F
:1013E0008FEF0E948D000E943A03B092EE01A0920E
:1013F000ED01ABCF40E062E382E30E948D000E94EA
:101400003A0368E37FEF8CEA92E00E94090368ECFC
:1014100070E084EA92E00E9409030E947602833021
:1014200008F093CF70E060E08CEA92E00E9409033C
:1014300070E060E084EA92E00E9409031093EE01FC
:101440000093ED0182CF42E360E082E30E948D00D1
:101450000E943A0366E970E08CEA92E00E94090378
:1014600066E970E084EA92E00E9409030E94760235
:10147000823009F06ACF9092EE018092ED0165CF43
:1014800042E362E380E00E948D000E943A0366E935
:1014900070E08CEA92E00E94090366E970E084EA59
:1014A00092E00E9409030E94760281114ECF70E003
:1014B00060E08CEA92E00E94090370E060E084EA58
:1014C00092E00E9409033092EE012092ED013DCF9F
:1014D0000E94960320E030E040EA51E40E948C0D27
:1014E00018162CF4D093EE01C093ED012ECF86E0B8
:1014F00090E09093EE018093ED0127CF6AE67FEFB5
:101500008CEA92E00E9409036AE67FEF84EA92E0A7
:101510000E9409030E947602813009F016CF87E00D
:1015200090E0E7CF6AE67FEF8CEA92E00E94090341
:101530006AE67FEF84EA92E00E9409030E94760245
:10154000811103CF70E060E08CEA92E00E94090311
:1015500070E060E084EA92E00E94090388E090E095
:10156000C8CF0E94960320E030E040EA51E40E9498
:101570008C0D18160CF4B6CF89E090E0BACF6AE66D
:101580007FEF8CEA92E00E9409036AE67FEF84EA2B
:1015900092E00E9409030E947602813009F0D5CEC4
:1015A0008AE090E0A6CF6AE67FEF8CEA92E00E94A4
:1015B00009036AE67FEF84EA92E00E9409030E9431
:1015C00076028111C2CE70E060E08CEA92E00E9467
:1015D000090370E060E084EA92E00E9409038BE076
:1015E00090E087CF0E94960320E030E040EA51E48B
:1015F0000E948C0D18160CF475CF8CE090E079CF1A
:101600006AE67FEF8CEA92E00E9409036AE67FEFC8
:1016100084EA92E00E9409030E947602813009F078
:1016200094CE8DE090E065CF6AE67FEF8CEA92E0A1
:101630000E9409036AE67FEF84EA92E00E940903B0
:101640000E947602811181CE70E060E08CEA92E027
:101650000E94090370E060E084EA92E00E940903BE
:1016600041CF0E94730B08F481E00895E89409C00B
:1016700097FB3EF490958095709561957F4F8F4FC5
:101680009F4F9923A9F0F92F96E9BB279395F695DB
:10169000879577956795B795F111F8CFFAF4BB0F59
:1016A00011F460FF1BC06F5F7F4F8F4F9F4F16C0BD
:1016B000882311F096E911C0772321F09EE8872F47
:1016C000762F05C0662371F096E8862F70E060E003
:1016D0002AF09A95660F771F881FDAF7880F96957C
:1016E000879597F90895990F0008550FAA0BE0E820
:1016F000FEEF16161706E807F907C0F012161306D4
:10170000E407F50798F0621B730B840B950B39F413
:101710000A2661F0232B242B252B21F408950A2679
:1017200009F4A140A6958FEF811D811D08950E94A7
:10173000AA0B0C941B0C0E940D0C38F00E94140C88
:1017400020F0952311F00C94040C0C940A0C112435
:101750000C944F0C0E942C0C70F3959FC1F3950FC5
:1017600050E0551F629FF001729FBB27F00DB11D25
:10177000639FAA27F00DB11DAA1F649F6627B00DB5
:10178000A11D661F829F2227B00DA11D621F739F9E
:10179000B00DA11D621F839FA00D611D221F749FAC
:1017A0003327A00D611D231F849F600D211D822FF3
:1017B000762F6A2F11249F5750409AF0F1F088231A
:1017C0004AF0EE0FFF1FBB1F661F771F881F915047
:1017D0005040A9F79E3F510580F00C94040C0C94E6
:1017E0004F0C5F3FE4F3983ED4F386957795679569
:1017F000B795F795E7959F5FC1F7FE2B880F911D71
:101800009695879597F9089597F99F6780E870E016
:1018100060E008959FEF80EC089500240A94161666
:10182000170618060906089500240A9412161306CE
:10183000140605060895092E0394000C11F488235C
:1018400052F0BB0F40F4BF2B11F460FF04C06F5F78
:101850007F4F8F4F9F4F089557FD9058440F551F4E
:1018600059F05F3F71F04795880F97FB991F61F022
:101870009F3F79F087950895121613061406551F99
:10188000F2CF4695F1DF08C0161617061806991F05
:10189000F1CF86957105610508940895E894BB27FA
:1018A00066277727CB0197F90895A1E21A2EAA1B84
:1018B000BB1BFD010DC0AA1FBB1FEE1FFF1FA21700
:1018C000B307E407F50720F0A21BB30BE40BF50BFD
:1018D000661F771F881F991F1A9469F76095709586
:1018E000809590959B01AC01BD01CF0108955058A2
:1018F000BB27AA270E948F0C0C941B0C0E940D0C76
:1019000038F00E94140C20F039F49F3F19F426F4AB
:101910000C940A0C0EF4E095E7FB0C94040CE92FF0
:101920000E942C0C58F3BA176207730784079507B7
:1019300020F079F4A6F50C944E0C0EF4E0950B2EE5
:10194000BA2FA02D0B01B90190010C01CA01A00111
:101950001124FF27591B99F0593F50F4503E68F16C
:101960001A16F040A22F232F342F4427585FF3CFAD
:10197000469537952795A795F0405395C9F77EF47E
:101980001F16BA0B620B730B840BBAF09150A1F0C7
:10199000FF0FBB1F661F771F881FC2F70EC0BA0F4D
:1019A000621F731F841F48F4879577956795B795D5
:1019B000F7959E3F08F0B0CF9395880F08F09927D0
:1019C000EE0F9795879508950E94F80C0C941B0CC8
:1019D0000E94140C58F00E940D0C40F029F45F3F57
:1019E00029F00C94040C51110C944F0C0C940A0C1B
:1019F0000E942C0C68F39923B1F3552391F3951BA6
:101A0000550BBB27AA2762177307840738F09F5F1F
:101A10005F4F220F331F441FAA1FA9F335D00E2E8C
:101A20003AF0E0E832D091505040E695001CCAF7F9
:101A30002BD0FE2F29D0660F771F881FBB1F2617BC
:101A400037074807AB07B0E809F0BB0B802DBF0193
:101A5000FF2793585F4F3AF09E3F510578F00C9462
:101A6000040C0C944F0C5F3FE4F3983ED4F386953E
:101A700077956795B795F7959F5FC9F7880F911D83
:101A80009695879597F90895E1E0660F771F881F6F
:101A9000BB1F621773078407BA0720F0621B730B22
:101AA000840BBA0BEE1F88F7E09508950E945D0D38
:101AB0006894B1110C944F0C08950E94340C88F076
:101AC0009F5798F0B92F9927B751B0F0E1F0660F02
:101AD000771F881F991F1AF0BA95C9F714C0B13043
:101AE00091F00E944E0CB1E008950C944E0C672FBB
:101AF000782F8827B85F39F0B93FCCF38695779572
:101B00006795B395D9F73EF490958095709561955A
:101B10007F4F8F4F9F4F08950E94730B08F48FEFF4
:101B200008950E94730B880B990B0895EE0FFF1F09
:101B30000590F491E02D09940F931F93CF93DF93B9
:101B40008230910510F482E090E0E091E003F091A2
:101B5000E10330E020E0B0E0A0E0309799F42115F7
:101B6000310509F44AC0281B390B24303105D8F55A
:101B70008A819B816115710589F1FB0193838283C1
:101B8000FE0111C04081518102811381481759071C
:101B9000E0F04817590799F4109761F012960C93EA
:101BA000129713961C933296CF01DF91CF911F911C
:101BB0000F9108950093E0031093E103F4CF2115F2
:101BC000310551F04217530738F0A901DB019A01A2
:101BD000BD01DF01F801C1CFEF01F9CF9093E1031F
:101BE0008093E003CDCFFE01E20FF31F8193919329
:101BF0002250310939832883D7CF2091DE033091D9
:101C0000DF03232B41F42091020130910301309333
:101C1000DF032093DE0320910001309101012115A3
:101C2000310541F42DB73EB74091040150910501B3
:101C3000241B350BE091DE03F091DF03E217F3077D
:101C4000A0F42E1B3F0B2817390778F0AC014E5F2C
:101C50005F4F2417350748F04E0F5F1F5093DF0387
:101C60004093DE03819391939FCFF0E0E0E09CCF1F
:101C7000CF93DF930097E9F0FC0132971382128231
:101C8000A091E003B091E103ED0130E020E0109776
:101C9000A1F420813181820F931F2091DE033091C6
:101CA000DF032817390709F061C0F093DF03E093E1
:101CB000DE03DF91CF910895EA01CE17DF07E8F543
:101CC0004A815B819E0141155105B1F7E901FB8312
:101CD000EA8349915991C40FD51FEC17FD0761F4B0
:101CE000808191810296840F951FE90199838883F1
:101CF000828193819B838A83F0E0E0E012968D914C
:101D00009C9113970097B9F52D913C911197CD01B6
:101D10000296820F931F2091DE033091DF03281774
:101D2000390739F6309751F51092E1031092E0032C
:101D3000B093DF03A093DE03BCCFD383C283408183
:101D40005181840F951FC817D90761F44E5F5F4F0B
:101D500088819981480F591F518340838A819B81D3
:101D6000938382832115310509F0B0CFF093E1030D
:101D7000E093E0039ECFFD01DC01C0CF138212820D
:101D8000D7CFFB01DC0104C08D910190801921F4B3
:101D900041505040C8F7881B990B0895FB01DC01A6
:101DA00002C001900D9241505040D8F708950F9312
:101DB0001F93CF93DF93E091E403F091E503238138
:101DC000EC0110E000E021FD08C00FEF1FEF14C090
:101DD0000995892B11F00FEF1FEF89916091E403B2
:101DE0007091E503DB011896ED91FC918111F0CF24
:101DF0008AE00995892B49F7C801DF91CF911F919E
:101E00000F91089510E0C2E6D0E004C0FE010E94E8
:0E1E1000960D2196C336D107C9F7F894FFCF7F
:101E1E000000E8038000000000005801B800E50053
:101E2E00A5011601F40008015468657265206973F6
:101E3E00206E6F7420656E6F7567682073706163B6
:101E4E0065210D000D0A006E616E00696E66006FF1
:041E5E0076660000A4
:00000001FF
