:100000000C9463000C948B000C948B000C948B006C
:100010000C948B000C948B000C948B000C946E054C
:100020000C948B000C948B000C948B000C940A05A0
:100030000C948B000C948B000C948B000C948B0014
:100040000C94C0040C948B000C948E040C946804E3
:100050000C948B000C948B000C948B000C948B00F4
:100060000C948B000C948B000000000024002700EF
:100070002A0000000008000201000003040700003D
:1000800000000000000000000000230026002900FE
:1000900000000000250028002B00040404040404D0
:1000A0000404020202020202030303030303010227
:1000B00004081020408001020408102001020408F6
:1000C00010208706790611241FBECFEFD8E0DEBFCF
:1000D000CDBF11E0A0E0B1E0EAEEFAE102C0059088
:1000E0000D92A834B107D9F723E0A8E4B1E001C02C
:1000F0001D92AC3EB207E1F710E0C2E6D0E004C0CA
:100100002197FE010E94FC0BC136D107C9F70E945E
:1001100095070C94680D0C94000090E0F0E0E0E08E
:100120002091BC023091BD02E217F307F8F4E21708
:100130001306C8F4292F30E0A091BE02B091BF028F
:10014000A20FB31F6C93A091BE02B091BF02A20F89
:10015000B31F11968C93A091BE02B091BF02A20F63
:10016000B31F12964C9331969D5FDACF81E00895CC
:10017000AF92BF92CF92DF92EF92FF920F931F93B5
:10018000CF93DF936C017B018B01040F151FEB01F3
:100190005E01AE18BF08C017D10759F06991D601AA
:1001A000ED91FC910190F081E02DC6010995892B1C
:1001B00079F7C501DF91CF911F910F91FF90EF90DB
:1001C000DF90CF90BF90AF900895FC01538D448D88
:1001D000252F30E0842F90E0821B930B541710F0F2
:1001E000CF96089501970895FC01918D828D9817FF
:1001F00061F0A28DAE0FBF2FB11D5D968C91928DD7
:100200009F5F9F73928F90E008958FEF9FEF089507
:10021000FC01918D828D981731F0828DE80FF11DD0
:10022000858D90E008958FEF9FEF0895FC01918DEB
:10023000228D892F90E0805C9F4F821B91098F73E4
:100240009927089587EF91E00E94160121E0892BFC
:1002500009F420E0822F089580E090E0892B29F0B6
:100260000E94220181110C9400000895FC01A48DCC
:10027000A80FB92FB11DA35ABF4F2C91848D90E0C8
:1002800001968F739927848FA689B7892C93A089AB
:10029000B1898C91837080648C93938D848D981335
:1002A00006C00288F389E02D80818F7D80830895C8
:1002B000EF92FF920F931F93CF93DF93EC0181E0B6
:1002C000888F9B8D8C8D98131AC0E889F98980815D
:1002D00085FF15C09FB7F894EE89FF896083E88990
:1002E000F98980818370806480839FBF81E090E082
:1002F000DF91CF911F910F91FF90EF900895F62E0F
:100300000B8D10E00F5F1F4F0F731127E02E8C8DA8
:100310008E110CC00FB607FCFACFE889F9898081ED
:1003200085FFF5CFCE010E943601F1CFEB8DEC0FAA
:10033000FD2FF11DE35AFF4FF0829FB7F8940B8F0A
:10034000EA89FB8980818062CFCFCF93DF93EC0174
:10035000888D8823B9F0AA89BB89E889F9898C91AD
:1003600085FD03C0808186FD0DC00FB607FCF7CF69
:100370008C9185FFF2CF808185FFEDCFCE010E9469
:100380003601E9CFDF91CF910895833081F028F4D1
:10039000813099F08230A9F008958730A9F0883033
:1003A000C9F08430B1F4809180008F7D03C08091CA
:1003B00080008F7780938000089584B58F7784BD07
:1003C000089584B58F7DFBCF8091B0008F778093A7
:1003D000B00008958091B0008F7DF9CFCF93DF9367
:1003E000282F30E0F901EE58FF4F8491F901E255D2
:1003F000FF4FD491F901E656FF4FC491CC23A1F0F1
:1004000081110E94C501EC2FF0E0EE0FFF1FEA57AB
:10041000FF4FA591B491EC91ED2381E090E009F4B8
:1004200080E0DF91CF91089580E090E0FACF1F93B4
:10043000CF93DF93282F30E0F901EE58FF4F8491DE
:10044000F901E255FF4FD491F901E656FF4FC491EF
:10045000CC23A9F0162F81110E94C501EC2FF0E0EA
:10046000EE0FFF1FE057FF4FA591B4918FB7F8949F
:10047000EC91111108C0D095DE23DC938FBFDF9182
:10048000CF911F910895DE2BF8CFCF93DF9390E0AB
:10049000FC01E255FF4F249186569F4FFC01849149
:1004A0008823D1F090E0880F991FFC01E859FF4F95
:1004B000A591B491FC01E057FF4FC591D491611112
:1004C0000EC09FB7F8948C91E22FE0958E238C9309
:1004D0002881E223E8839FBFDF91CF9108958FB7F2
:1004E000F894EC91E22BEC938FBFF6CFCF93DF9390
:1004F00060E0809194020E944502809194020E94E3
:10050000EE01EC0160E0809195020E94450280912D
:1005100095020E94EE01AC0121E030E0CD2B11F4F8
:1005200030E020E0220F331F81E0452B09F480E00A
:10053000822BDF91CF9108951F93CF93DF93182FD4
:10054000EB0161E00E944502209739F460E0812FC1
:10055000DF91CF911F910C941702CF3FD10511F479
:1005600061E0F5CFE12FF0E0EE58FF4FE491E3308A
:1005700031F140F4E130B1F0E230E1F0C038D105C2
:100580007CF7E4CFE73029F1E83059F1E430B1F7F6
:1005900080918000806280938000D0938B00C09314
:1005A0008A0004C084B5806884BDC7BDDF91CF9147
:1005B0001F91089584B5806284BDC8BDF7CF809136
:1005C0008000806880938000D0938900C093880069
:1005D000EDCF8091B00080688093B000C093B300ED
:1005E000E5CF8091B00080628093B000C093B400EA
:1005F000DDCF1F93CF93DF93EC01162F61E089814C
:100600000E944502612F8981DF91CF911F910C9447
:1006100017020F931F93CF93DF93FC01268137813D
:100620002617370711F1EB018C017783668377FD7D
:1006300010C061E00E94F9028FE090E00197F1F7AD
:10064000BE01F8018081DF91CF911F910F910C9431
:100650009C0260E00E94F9028FE090E00197F1F7C0
:10066000662777276C1B7D0BECCFDF91CF911F9115
:100670000F9108950F931F93CF93DF938091BC0246
:100680009091BD02EC01CC0FDD1FC80FD91F009166
:10069000BE021091BF02AE01B8018091C0029091DC
:1006A000C1020E94270D892B09F43BC0A091C20210
:1006B000B091C3028091C6023FB7F8942C91982F55
:1006C00090959223822BF801CE0FDF1FEC17FD07C8
:1006D00081F0219148E08C9300C027FF9C93220F6A
:1006E00000C000C000C008F49C9300C04A9599F770
:1006F000EDCF3FBF8091BC029091BD02AC01440F91
:10070000551F480F591F6091BE027091BF02809122
:10071000C0029091C1020E94340D8BEC97E00197CA
:10072000F1F7DF91CF911F910F9108958F929F92D2
:10073000AF92BF92CF92DF92EF92FF920F931F93EF
:100740002FB7F8948091F3019091F401A091F501F5
:10075000B091F6012FBF4091A0025091A10260918B
:10076000A2027091A302841B950BA60BB70B4897AE
:10077000A105B10518F081E080939F0280919F024E
:10078000882309F48BC02FB7F8948091F3019091DE
:10079000F401A091F501B091F6012FBF8093A00262
:1007A0009093A102A093A202B093A30210929F0281
:1007B00060E08AE992E00E94F90283E090E001970C
:1007C000F1F761E08AE992E00E94F90283E290E0A9
:1007D0000197F1F760E08AE992E00E94F90260E097
:1007E00080919B020E94450280919B0290E0FC0157
:1007F000E255FF4F6491FC01E656FF4FE491F0E0B3
:10080000EE0FFF1FEA57FF4F8591949100E412E429
:100810002FE030E0462F0E943406611571058105F6
:10082000910529F06F5F7F4F8F4F9F4F9F706B0136
:100830007C010E947D0A6093A4027093A5028093BC
:10084000A6029093A702C701B6010E947D0A20E08C
:1008500030E048E652E40E944F0B4B015C0120E07F
:1008600030E048EC53E40E94F70B87FF04C0CD282A
:10087000CE28CF2831F4812C912C88ECA82E83E44B
:10088000B82EC501B4011F910F91FF90EF90DF903A
:10089000CF90BF90AF909F908F9008956091A402E9
:1008A0007091A5028091A6029091A7020E94C10BAF
:1008B0006B017C01C8CFFC0101900020E9F7319762
:1008C000AF01481B590BBC0187EF91E00C94B800B5
:1008D0001F920F920FB60F9211242F933F934F93B5
:1008E0005F936F937F938F939F93AF93BF93EF9398
:1008F000FF9387EF91E00E943601FF91EF91BF9146
:10090000AF919F918F917F916F915F914F913F91A7
:100910002F910F900FBE0F901F9018951F920F925E
:100920000FB60F9211242F938F939F93EF93FF9302
:10093000E0910702F09108028081E0910D02F091B0
:100940000E0282FD1BC09081809110028F5F8F7319
:1009500020911102821741F0E0911002F0E0E9507D
:10096000FE4F958F80931002FF91EF919F918F9191
:100970002F910F900FBE0F901F9018958081F4CF8C
:100980001F920F920FB60F9211242F933F938F93C4
:100990009F93AF93BF938091F3019091F401A09145
:1009A000F501B091F6013091EE0123E0230F2D37D0
:1009B00058F50196A11DB11D2093EE018093F3011E
:1009C0009093F401A093F501B093F6018091EA01B0
:1009D0009091EB01A091EC01B091ED010196A11D68
:1009E000B11D8093EA019093EB01A093EC01B093C9
:1009F000ED01BF91AF919F918F913F912F910F90FA
:100A00000FBE0F901F90189526E8230F0296A11D88
:100A1000B11DD2CF1F920F920FB60F9211242F93B8
:100A20003F938F939F93EF93FF938091E90187FF0B
:100A30001FC010928500109284008091E9018F5FA1
:100A40008093E9018091E90187FF04C08091E90169
:100A50008C30ACF0809184009091850004968034B5
:100A60009C4990F1809184009091850004962EC05D
:100A70008091E90187FFE1CF8091E901DECF2091EC
:100A8000840030918500E091E9018E2FEE0F990BE3
:100A9000FC01EE0FFF1FE80FF91FEB53FE4F8181A2
:100AA0009281820F931F9093890080938800809198
:100AB000E901FF91EF919F918F913F912F910F90BD
:100AC0000FBE0F901F90189580E49CE990938900C9
:100AD000809388008FEF8093E901EBCF1F920F92F4
:100AE0000FB60F9211240F931F932F933F934F93A1
:100AF0005F936F937F938F939F93AF93BF93EF9386
:100B0000FF9382E00E94EE0120915E0130915F012F
:100B10002F5F3F4F30935F0120935E019091C4019E
:100B2000943618F095E090935901909159019330C3
:100B300009F44AC0A8F49230E9F1FF91EF91BF9116
:100B4000AF919F918F917F916F915F914F913F9165
:100B50002F911F910F910F900FBE0F901F9018951E
:100B6000943009F44AC0953041F79FB7F89440910A
:100B7000F3015091F4016091F5017091F6019FBF6E
:100B800000915A0110915B0120915C0130915D014F
:100B9000401B510B620B730B493C510561057105FC
:100BA00008F45BC01092C40110925F0110925E01C4
:100BB00082E020C08111C1CF1092C40110925F0168
:100BC00010925E0183E016C0813009F0B6CF8091AB
:100BD0005E0190915F01E091C40191E09E0F9093BE
:100BE000C401F0E0E85AFE4F808710925F01109236
:100BF0005E0184E080935901A0CF81110FC08091E4
:100C00005E0190915F01E091C40191E09E0F90938D
:100C1000C401F0E0E85AFE4F8087D0CF80915E019A
:100C200090915F018536910508F487CF85E0809328
:100C300059012FB7F8948091F3019091F401A0919C
:100C4000F501B091F6012FBF80935A0190935B019B
:100C5000A0935C01B0935D0170CF81116ECF1092B3
:100C60005F0110925E0169CFCF92DF92EF92FF9207
:100C70000F931F93E82FF92F05C001501109210987
:100C8000310961F1908196239417B9F305C00150A1
:100C900011092109310911F1908196239413F7CF9D
:100CA000C12CD12CE12CF12C0AC08FEFC81AD80A24
:100CB000E80AF80A0C151D052E053F0579F080811C
:100CC0008623841791F36C2D7D2D8E2D9F2D1F91E2
:100CD0000F91FF90EF90DF90CF90089560E070E06B
:100CE00080E090E01F910F91FF90EF90DF90CF9008
:100CF0000895CF93DF93C8EBD2E08E819F810E944D
:100D00009E0C88859985DF91CF910C949E0C109252
:100D1000FA011092F90188EE93E0A0E0B0E0809330
:100D2000FB019093FC01A093FD01B093FE018AE0CA
:100D300091E09093F8018093F70185EC90E0909317
:100D400004028093030284EC90E090930602809367
:100D5000050280EC90E0909308028093070281ECFA
:100D600090E090930A028093090282EC90E09093C5
:100D70000C0280930B0286EC90E090930E0280931D
:100D80000D02109210021092110210921202109293
:100D9000130281E090E09093C8028093C702109202
:100DA000C9031092CA031092CB031092CC03109285
:100DB000CD031092CE031092CF031092D003109265
:100DC000D1031092D2031092D3031092D403109245
:100DD000D5031092D6031092D8031092D703109225
:100DE000D9031092DA031092DB031092DC03109205
:100DF000DD031092DE031092DF031092E0031092E5
:100E0000E10386E08093B00287E08093B10299E02D
:100E10009093B20285E08093A80284E08093A902B7
:100E20008AE08093AA0220E120939A0221E1209394
:100E30009B0223E020939C0290939402809395025E
:100E400082E0809396021092B8021092B90210923A
:100E5000BA02EEEAF0E0E491E093C602EAE9F0E0DB
:100E6000E491F0E0EE0FFF1FE057FF4F8591949162
:100E70009093C3028093C20261E080E00E94450229
:100E80008EE190E09093BD028093BC028AE590E0F1
:100E90000E94020C9093BF028093BE02892B21F422
:100EA00088E191E00E943D0D30E020E04091BC02DD
:100EB0005091BD02CA01880F991F840F951F2817F2
:100EC000390750F4E091BE02F091BF02E20FF31F28
:100ED00010822F5F3F4FEACF0E94020C9093C10215
:100EE0008093C002892B21F488E191E00E943D0D9E
:100EF00090E080E04091BC025091BD029A01220F27
:100F0000331F240F351F8217930748F4E091C00266
:100F1000F091C102E80FF91F10820196EBCF1092F9
:100F2000BA0282E08093BB020895CF93DF93CDB7DE
:100F3000DEB7A1970FB6F894DEBF0FBECDBF789491
:100F400084B5826084BD84B5816084BD85B58260CE
:100F500085BD85B5816085BD80916E00816080937F
:100F60006E001092810080918100826080938100E8
:100F700080918100816080938100809180008160F8
:100F8000809380008091B10084608093B100809153
:100F9000B00081608093B00080917A00846080937B
:100FA0007A0080917A00826080937A0080917A0042
:100FB000816080937A0080917A00806880937A00C3
:100FC0001092C10040E060E080E00E948D0080E06F
:100FD00030E020E062E091E04091BC025091BD021F
:100FE00024173507D8F4482F50E0E091C002F09163
:100FF000C102E40FF51F6083E091C002F091C102CD
:10100000E40FF51F1182E091C002F091C102E40FDC
:10101000F51F92832F5F3F4F8D5FDECFEBEBF0E04C
:10102000E491E093C602E7EAF0E0E491F0E0EE0F2D
:10103000FF1FE057FF4F859194919093C3028093D7
:10104000C20261E08DE00E9445021092BA0212E0F5
:101050001093BB024FEF6FEF8FEF0E948D000E9445
:101060003A03E0910702F09108021083E091030235
:10107000F09104021082E0910502F09106028FECDB
:10108000808310920F02E0910B02F0910C0286E037
:101090008083E0910902F0910A028081806180835F
:1010A000E0910902F0910A02808188608083E091DA
:1010B0000902F0910A02808180688083E091090230
:1010C000F0910A0280818F7D80833AE0432E512C7B
:1010D000612C712CEE24E394F12C87E0282E312C26
:1010E00095E0C92ED12C84E391E00E945B048090AE
:1010F000F1019090F201092C000CAA08BB08B7FE80
:1011000051C06DE287EF91E00E94580122273327FA
:10111000A901281939094A095B0919A28E010F5D35
:101120001F4FCA01B901A30192010E942D0B605DFE
:10113000F80162938F01211531054105510589F7A9
:101140000115110519F0C8010E945B0484E491E0C7
:101150000E945B040E947602182F90E09093F001A9
:101160008093EF0140E060E080E00E948D000E94EB
:101170003A03E091F101F091F201EE30F10578F5DA
:10118000EC53F74F0C94FC0B6E0AE80846096D0906
:101190008809B009C609DC09FB09090A1D0A3C0ACD
:1011A0004A0A5E0AA501940119A28E010F5D1F4F24
:1011B000CA01B901A30192010E942D0B605DF801E3
:1011C00062938F01211531054105510589F7B8CF8B
:1011D0001130F9F088F0123081F11330E9F180E03C
:1011E00090E0892B09F47FCF0E942201882309F423
:1011F00074CF0E94000071CF6AE67FEF80EB92E02F
:101200000E94090366E970E088EA92E00E940903FF
:10121000E6CF70E060E080EB92E00E94090366E9AF
:1012200070E088EA92E00E9409034FEF60E080E0FE
:101230000E948D000E943A03D2CF6AE67FEF80EBD6
:1012400092E00E94090370E060E088EA92E00E9468
:10125000090340E06FEFEBCF70E060E080EB92E0DD
:101260000E94090370E060E088EA92E00E940903AE
:1012700040E060E08FEF0E948D000E943A0382E020
:1012800090E09093F2018093F101A9CF40E062E3F6
:1012900082E30E948D000E943A0368E37FEF80EBB7
:1012A00092E00E94090368EC70E088EA92E00E94F4
:1012B00009030E947602833008F091CF70E060E06D
:1012C00080EB92E00E94090370E060E088EA92E01F
:1012D0000E94090383E090E0D4CF42E360E082E320
:1012E0000E948D000E943A0366E970E080EB92E074
:1012F0000E94090366E970E088EA92E00E9409030F
:101300000E947602823009F06ACF84E090E0B9CF83
:1013100042E362E380E00E948D000E943A0366E9A6
:1013200070E080EB92E00E94090366E970E088EAD1
:1013300092E00E9409030E947602811150CF70E072
:1013400060E080EB92E00E94090370E060E088EAD0
:1013500092E00E940903D092F201C092F1013FCFC6
:101360000E94960320E030E040EA51E40E94F70B2F
:1013700018162CF4F092F201E092F10130CFE6E081
:10138000F0E0F093F201E093F10129CF6AE67FEFFC
:1013900080EB92E00E9409036AE67FEF88EA92E020
:1013A0000E9409030E947602823009F018CF309221
:1013B000F2012092F10113CF6AE67FEF80EB92E019
:1013C0000E9409036AE67FEF88EA92E00E9409031F
:1013D0000E947602811103CF70E060E080EB92E022
:1013E0000E94090370E060E088EA92E00E9409032D
:1013F00088E090E046CF0E94960320E030E040EA8B
:1014000051E40E94F70BE9E0F0E018160CF0B9CFB8
:10141000B1CF6AE67FEF80EB92E00E9409036AE6B3
:101420007FEF88EA92E00E9409030E9476028130F1
:1014300009F0D5CE8AE090E024CF6AE67FEF80EB1A
:1014400092E00E9409036AE67FEF88EA92E00E9438
:1014500009030E9476028111C2CE70E060E080EB49
:1014600092E00E94090370E060E088EA92E00E9446
:101470000903EBE0F0E085CF0E94960320E030E026
:1014800040EA51E40E94F70B18160CF473CF8CE07D
:1014900090E0F7CE6AE67FEF80EB92E00E940903CE
:1014A0006AE67FEF88EA92E00E9409030E947602D2
:1014B000813009F094CEEDE0F0E063CF6AE67FEF93
:1014C00080EB92E00E9409036AE67FEF88EA92E0EF
:1014D0000E9409030E947602811181CE70E060E0D3
:1014E00080EB92E00E94090370E060E088EA92E0FD
:1014F0000E9409033FCFE89409C097FB3EF4909502
:101500008095709561957F4F8F4F9F4F9923A9F0DC
:10151000F92F96E9BB279395F6958795779567956B
:10152000B795F111F8CFFAF4BB0F11F460FF1BC0AF
:101530006F5F7F4F8F4F9F4F16C0882311F096E942
:1015400011C0772321F09EE8872F762F05C06623F0
:1015500071F096E8862F70E060E02AF09A95660FA9
:10156000771F881FDAF7880F9695879597F9089562
:10157000990F0008550FAA0BE0E8FEEF16161706A4
:10158000E807F907C0F012161306E407F50798F00C
:10159000621B730B840B950B39F40A2661F0232B25
:1015A000242B252B21F408950A2609F4A140A695A1
:1015B0008FEF811D811D089597F99F6780E870E086
:1015C00060E008959FEF80EC089500240A941616B9
:1015D000170618060906089500240A941216130621
:1015E000140605060895092E0394000C11F48823AF
:1015F00052F0BB0F40F4BF2B11F460FF04C06F5FCB
:101600007F4F8F4F9F4F089557FD9058440F551FA0
:1016100059F05F3F71F04795880F97FB991F61F074
:101620009F3F79F087950895121613061406551FEB
:10163000F2CF4695F1DF08C0161617061806991F57
:10164000F1CF86957105610508940895E894BB274C
:1016500066277727CB0197F90895A1E21A2EAA1BD6
:10166000BB1BFD010DC0AA1FBB1FEE1FFF1FA21752
:10167000B307E407F50720F0A21BB30BE40BF50B4F
:10168000661F771F881F991F1A9469F760957095D8
:10169000809590959B01AC01BD01CF0108950E94FA
:1016A000630B0C94F30A0E94EC0A58F00E94E50ABE
:1016B00040F029F45F3F29F00C94DC0A51110C949E
:1016C000270B0C94E20A0E94040B68F39923B1F3F0
:1016D000552391F3951B550BBB27AA276217730758
:1016E000840738F09F5F5F4F220F331F441FAA1FEC
:1016F000A9F335D00E2E3AF0E0E832D091505040A8
:10170000E695001CCAF72BD0FE2F29D0660F771F55
:10171000881FBB1F261737074807AB07B0E809F03B
:10172000BB0B802DBF01FF2793585F4F3AF09E3FC0
:10173000510578F00C94DC0A0C94270B5F3FE4F31E
:10174000983ED4F3869577956795B795F7959F5F03
:10175000C9F7880F911D9695879597F90895E1E04F
:10176000660F771F881FBB1F621773078407BA07AE
:1017700020F0621B730B840BBA0BEE1F88F7E09509
:1017800008950E94C80B6894B1110C94270B08951A
:101790000E940C0B88F09F5798F0B92F9927B751EA
:1017A000B0F0E1F0660F771F881F991F1AF0BA9505
:1017B000C9F714C0B13091F00E94260BB1E0089532
:1017C0000C94260B672F782F8827B85F39F0B93F24
:1017D000CCF3869577956795B395D9F73EF49095B8
:1017E0008095709561957F4F8F4F9F4F08950E9410
:1017F000B80A08F48FEF0895EE0FFF1F0590F491DB
:10180000E02D09940F931F93CF93DF9382309105BE
:1018100010F482E090E0E091E403F091E50330E021
:1018200020E0B0E0A0E0309799F42115310509F4EB
:101830004AC0281B390B24303105D8F58A819B8199
:101840006115710589F1FB0193838283FE0111C04B
:10185000408151810281138148175907E0F04817F0
:10186000590799F4109761F012960C9312971396FA
:101870001C933296CF01DF91CF911F910F91089564
:101880000093E4031093E503F4CF2115310551F0E3
:101890004217530738F0A901DB019A01BD01DF01AE
:1018A000F801C1CFEF01F9CF9093E5038093E403F2
:1018B000CDCFFE01E20FF31F8193919322503109A6
:1018C00039832883D7CF2091E2033091E303232B80
:1018D00041F420910201309103013093E3032093FE
:1018E000E20320910001309101012115310541F4FD
:1018F0002DB73EB74091040150910501241B350BD3
:10190000E091E203F091E303E217F307A0F42E1B4A
:101910003F0B2817390778F0AC014E5F5F4F241753
:10192000350748F04E0F5F1F5093E3034093E203E7
:10193000819391939FCFF0E0E0E09CCFCF93DF9332
:101940000097E9F0FC01329713821282A091E40320
:10195000B091E503ED0130E020E01097A1F4208183
:101960003181820F931F2091E2033091E303281706
:10197000390709F061C0F093E303E093E203DF91DC
:10198000CF910895EA01CE17DF07E8F54A815B8120
:101990009E0141155105B1F7E901FB83EA834991A5
:1019A0005991C40FD51FEC17FD0761F48081918117
:1019B0000296840F951FE901998388838281938120
:1019C0009B838A83F0E0E0E012968D919C911397BF
:1019D0000097B9F52D913C911197CD010296820F98
:1019E000931F2091E2033091E3032817390739F65A
:1019F000309751F51092E5031092E403B093E3039E
:101A0000A093E203BCCFD383C28340815181840F72
:101A1000951FC817D90761F44E5F5F4F8881998180
:101A2000480F591F518340838A819B81938382830E
:101A30002115310509F0B0CFF093E503E093E403FD
:101A40009ECFFD01DC01C0CF13821282D7CFFB01F4
:101A5000DC0104C08D910190801921F44150504067
:101A6000C8F7881B990B0895FB01DC0102C00190A7
:101A70000D9241505040D8F708950F931F93CF9384
:101A8000DF93E091E803F091E9032381EC0110E09A
:101A900000E021FD08C00FEF1FEF14C00995892B4E
:101AA00011F00FEF1FEF89916091E8037091E90346
:101AB000DB011896ED91FC918111F0CF8AE0099538
:101AC000892B49F7C801DF91CF911F910F9108959C
:101AD00010E0C2E6D0E004C0FE010E94FC0B21969B
:0A1AE000C336D107C9F7F894FFCF11
:101AEA000000EC038000000000005801B800E50087
:101AFA00A5011601F400080154686572652069732E
:101B0A00206E6F7420656E6F7567682073706163ED
:101B1A0065210D0053657175656E63657374617433
:081B2A0065203D000D0A0000DA
:00000001FF
