:100000000C9462000C948A000C948A000C948A0070
:100010000C948A000C948A000C948A000C940B04B3
:100020000C948A000C948A000C948A000C94A70308
:100030000C948A000C948A000C948A000C948A0018
:100040000C945D030C948A000C942B030C94050310
:100050000C948A000C948A000C948A000C948A00F8
:100060000C948A000C948A000000000024002700F1
:100070002A0000000000250028002B0000000000DE
:1000800023002600290004040404040404040202DA
:100090000202020203030303030301020408102007
:1000A0004080010204081020010204081020000012
:1000B0000008000201000003040700000000000027
:1000C0000000D10411241FBECFEFD8E0DEBFCDBFAA
:1000D00011E0A0E0B1E0E2EEFBE002C005900D927D
:1000E000A231B107D9F723E0A2E1B1E001C01D922E
:1000F000AB39B207E1F710E0C2E6D0E004C02197C7
:10010000FE010E94E905C136D107C9F70E945405D6
:100110000C94EF050C940000AF92BF92CF92DF9247
:10012000EF92FF920F931F93CF93DF936C017B01AC
:100130008B01040F151FEB015E01AE18BF08C0173D
:10014000D10759F06991D601ED91FC910190F081B0
:10015000E02DC6010995892B79F7C501DF91CF9173
:100160001F910F91FF90EF90DF90CF90BF90AF90D5
:100170000895FC01538D448D252F30E0842F90E0AD
:10018000821B930B541710F0CF9608950197089592
:10019000FC01918D828D981761F0A28DAE0FBF2F5B
:1001A000B11D5D968C91928D9F5F9F73928F90E0B1
:1001B00008958FEF9FEF0895FC01918D828D981720
:1001C00031F0828DE80FF11D858D90E008958FEF5D
:1001D0009FEF0895FC01918D228D892F90E0805C26
:1001E0009F4F821B91098F73992708958FEB91E0A0
:1001F0000E94EA0021E0892B09F420E0822F089573
:1002000080E090E0892B29F00E94F60081110C9487
:1002100000000895FC01A48DA80FB92FB11DA35AA9
:10022000BF4F2C91848D90E001968F739927848F16
:10023000A689B7892C93A089B1898C918370806439
:100240008C93938D848D981306C00288F389E02DDA
:1002500080818F7D80830895EF92FF920F931F938B
:10026000CF93DF93EC0181E0888F9B8D8C8D981369
:100270001AC0E889F989808185FF15C09FB7F89475
:10028000EE89FF896083E889F989808183708064C1
:1002900080839FBF81E090E0DF91CF911F910F910C
:1002A000FF90EF900895F62E0B8D10E00F5F1F4F1B
:1002B0000F731127E02E8C8D8E110CC00FB607FC2A
:1002C000FACFE889F989808185FFF5CFCE010E94B8
:1002D0000A01F1CFEB8DEC0FFD2FF11DE35AFF4F1B
:1002E000F0829FB7F8940B8FEA89FB898081806246
:1002F000CFCFCF93DF93EC01888D8823B9F0AA8903
:10030000BB89E889F9898C9185FD03C0808186FDD0
:100310000DC00FB607FCF7CF8C9185FFF2CF80811F
:1003200085FFEDCFCE010E940A01E9CFDF91CF9189
:100330000895833081F028F4813099F08230A9F05B
:1003400008958730A9F08830C9F08430B1F48091E5
:1003500080008F7D03C0809180008F778093800024
:10036000089584B58F7784BD089584B58F7DFBCFC4
:100370008091B0008F778093B00008958091B00095
:100380008F7DF9CFCF93DF93282F30E0F901E2552D
:10039000FF4F8491F901E656FF4FD491F901EA57D6
:1003A000FF4FC491CC23A1F081110E949901EC2F41
:1003B000F0E0EE0FFF1FE458FF4FA591B491EC91D0
:1003C000ED2381E090E009F480E0DF91CF91089582
:1003D00080E090E0FACF1F93CF93DF93282F30E097
:1003E000F901E255FF4F8491F901E656FF4FD49190
:1003F000F901EA57FF4FC491CC23A9F0162F8111C0
:100400000E949901EC2FF0E0EE0FFF1FEE58FF4F16
:10041000A591B4918FB7F894EC91111108C0D095C3
:10042000DE23DC938FBFDF91CF911F910895DE2BE8
:10043000F8CFCF93DF9390E0FC01E656FF4F249175
:100440008A579F4FFC0184918823D1F090E0880F58
:10045000991FFC01E859FF4FA591B491FC01EE589A
:10046000FF4FC591D49161110EC09FB7F8948C9144
:10047000E22FE0958E238C932881E223E8839FBFAF
:10048000DF91CF9108958FB7F894EC91E22BEC9324
:100490008FBFF6CFCF93DF9360E0809177030E9408
:1004A0001902809177030E94C201EC0160E0809103
:1004B00078030E941902809178030E94C201AC0166
:1004C00021E030E0CD2B11F430E020E0220F331F8B
:1004D00081E0452B09F480E0822BDF91CF910895D4
:1004E0001F93CF93DF93182FEB0161E00E94190255
:1004F000209739F460E0812FDF91CF911F910C9408
:10050000EB01CF3FD10511F461E0F5CFE12FF0E031
:10051000E255FF4FE491E33031F140F4E130B1F0C6
:10052000E230E1F0C038D1057CF7E4CFE73029F1C3
:10053000E83059F1E430B1F7809180008062809317
:100540008000D0938B00C0938A0004C084B580687B
:1005500084BDC7BDDF91CF911F91089584B580629E
:1005600084BDC8BDF7CF80918000806880938000F3
:10057000D0938900C0938800EDCF8091B00080684F
:100580008093B000C093B300E5CF8091B00080624B
:100590008093B000C093B400DDCF0F931F93CF932F
:1005A000DF93FC01268137812617370749F18B013C
:1005B000EC017F836E83818161E017FD12C00E9490
:1005C000190261E089810E94EB018FE090E00197C0
:1005D000F1F7B8018881DF91CF911F910F910C94B1
:1005E00070020E94190260E089810E94EB018FE095
:1005F00090E00197F1F766277727601B710BEACF30
:10060000DF91CF911F910F9108951F920F920FB616
:100610000F9211242F933F934F935F936F937F9388
:100620008F939F93AF93BF93EF93FF938FEB91E0E3
:100630000E940A01FF91EF91BF91AF919F918F911D
:100640007F916F915F914F913F912F910F900FBECE
:100650000F901F9018951F920F920FB60F921124B2
:100660002F938F939F93EF93FF93E091CF01F0919E
:10067000D0018081E091D501F091D60182FD1BC0AF
:1006800090818091D8018F5F8F732091D90182175B
:1006900041F0E091D801F0E0E154FE4F958F809356
:1006A000D801FF91EF919F918F912F910F900FBEE5
:1006B0000F901F9018958081F4CF1F920F920FB664
:1006C0000F9211242F933F938F939F93AF93BF93D8
:1006D0008091B9019091BA01A091BB01B091BC0188
:1006E0003091B80123E0230F2D3758F50196A11D55
:1006F000B11D2093B8018093B9019093BA01A093E2
:10070000BB01B093BC018091B4019091B501A0915F
:10071000B601B091B7010196A11DB11D8093B4013E
:100720009093B501A093B601B093B701BF91AF917B
:100730009F918F913F912F910F900FBE0F901F901F
:10074000189526E8230F0296A11DB11DD2CF1F9246
:100750000F920FB60F9211242F933F938F939F9375
:10076000EF93FF938091B30187FF1FC01092850024
:10077000109284008091B3018F5F8093B3018091C8
:10078000B30187FF04C08091B3018C30ACF080913D
:10079000840090918500049680349C4990F180916A
:1007A00084009091850004962EC08091B30187FF4C
:1007B000E1CF8091B301DECF20918400309185009C
:1007C000E091B3018E2FEE0F990BFC01EE0FFF1F8E
:1007D000E80FF91FE157FE4F81819281820F931F2D
:1007E00090938900809388008091B301FF91EF91ED
:1007F0009F918F913F912F910F900FBE0F901F905F
:10080000189580E49CE990938900809388008FEF8D
:100810008093B301EBCF1F920F920FB60F9211246A
:100820000F931F932F933F934F935F936F937F93F8
:100830008F939F93AF93BF93EF93FF9382E00E94B8
:10084000C20120912801309129012F5F3F4F309341
:1008500029012093280190918E01943618F095E09B
:100860009093230190912301933009F44AC0A8F496
:100870009230E9F1FF91EF91BF91AF919F918F91EC
:100880007F916F915F914F913F912F911F910F91A8
:100890000F900FBE0F901F901895943009F44AC026
:1008A000953041F79FB7F8944091B9015091BA0142
:1008B0006091BB017091BC019FBF00912401109118
:1008C00025012091260130912701401B510B620B1D
:1008D000730B493C51056105710508F45BC010922A
:1008E0008E01109229011092280182E020C081110E
:1008F000C1CF10928E01109229011092280183E03D
:1009000016C0813009F0B6CF80912801909129015D
:10091000E0918E0191E09E0F90938E01F0E0EE5DEC
:10092000FE4F8087109229011092280184E0809365
:100930002301A0CF81110FC080912801909129013E
:10094000E0918E0191E09E0F90938E01F0E0EE5DBC
:10095000FE4F8087D0CF8091280190912901853664
:10096000910508F487CF85E0809323012FB7F89491
:100970008091B9019091BA01A091BB01B091BC01E5
:100980002FBF8093240190932501A0932601B0935B
:10099000270170CF81116ECF10922901109228018A
:1009A00069CFEFEBF1E01382128288EE93E0A0E0D2
:1009B000B0E084839583A683B78384E091E091833C
:1009C000808385EC90E09587848784EC90E097871E
:1009D000868780EC90E0918B808B81EC90E0938B0C
:1009E000828B82EC90E0958B848B86EC90E0978BE9
:1009F000868B118E128E138E148E81E090E0909370
:100A00005D0280935C0210925E0310925F0310926D
:100A100060031092610310926203109263031092BC
:100A2000640310926503109266031092670310929C
:100A300068031092690310926A0310926B0310927C
:100A40006D0310926C0310926E0310926F0310925C
:100A5000700310927103109272031092730310923C
:100A600074031092750310927603E3E9F3E086E0D5
:100A7000808387E0818399E09283EBE8F3E085E06F
:100A8000808384E081838AE08283EDE7F3E020E1E4
:100A9000208321E1218323E02283E7E7F3E09083B1
:100AA000818382E082830895789484B5826084BDD6
:100AB00084B5816084BD85B5826085BD85B5816062
:100AC00085BD80916E00816080936E0010928100E0
:100AD000809181008260809381008091810081609B
:100AE000809381008091800081608093800080915C
:100AF000B10084608093B1008091B00081608093E8
:100B0000B00080917A00846080937A0080917A00AE
:100B1000826080937A0080917A00816080937A006D
:100B200080917A00806880937A001092C100C0E0C2
:100B3000D0E001E010E082E0E82EF12C8091BD01D0
:100B40009091BE01009759F00197D1F02097B1F331
:100B50000E94F600882391F30E940000EFCF70E01E
:100B600060E083E993E00E94CD0270E060E08BE8F2
:100B700093E00E94CD021093BE010093BD01E6CF29
:100B80000E944A028130C9F058F08230C9F00E94B8
:100B90004A028330D9F6F092BE01E092BD01F7CF50
:100BA0006AE67FEF83E993E00E94CD0266E970E098
:100BB0008BE893E00E94CD02EACF70E060E0F2CFD4
:100BC0006AE67FEF83E993E00E94CD0270E060E087
:100BD000EFCFEE0FFF1F0590F491E02D0994F894EC
:020BE000FFCF45
:100BE200000000002C018C00B9007901EA00C80065
:020BF200DC0025
:00000001FF
